:100000004CC1000068C1000066C1000064C100006E
:1000100062C1000060C100005EC100005CC1000060
:100020005AC1000058C100000C94C60A0C94000B81
:1000300052C1000050C100004EC100004CC1000080
:100040004AC1000048C1000046C1000044C1000090
:1000500042C1000040C100003EC100003CC10000A0
:100060003AC1000038C1000036C1000034C10000B0
:1000700032C1000030C100002EC100002CC10000C0
:100080002AC1000028C1000026C1000024C10000D0
:1000900022C1000020C10000B40AB00AAC0AA80ABC
:1000A000A40AA00A9C0A980A940A900A8C0A880A50
:1000B000840A800A7C0A780A740A700A6C0A680A40
:1000C000640A600A5C0A580A540A500A4C0A480A30
:1000D000440A400A3C0A380A340A300A2C0A280A20
:1000E000240A200A1C0A180A140A100A0C0A080A10
:1000F000040A000AFC09F809F409F009EC09E80906
:10010000E409E009DC09D809D409D009CC09C809F7
:10011000C409C009BC09B809B4092D204E6F207369
:1001200075636820636869700D0A003F0D0A000D51
:100130000A00723030303030302052656164206106
:100140002068657820776F72642066726F6D206119
:100150006464726573730D0A6C20202020202020B7
:100160004C6973742063686970206D6F6465730DEA
:100170000A6D5459504520202053656C65637420E6
:100180006368697020545950450D0A73202020205F
:100190002020204175746F7363616E20666F72203A
:1001A0006368697020747970652028504F54454EFB
:1001B0005449414C4C592044414E4745524F5553A8
:1001C000290D0A000A000D003E20006261640D0A3C
:1001D00000000100007E0212000200003B0243000A
:1001E0000300003702040103090421021402030979
:1001F0000409021603030904FB010C0C033100324D
:10020000003300340035000000160355005300424F
:10021000002000530065007200690061006C00005E
:1002200000140359006F007500720020004E006139
:10023000006D006500000004030904090243000288
:100240000100C0320904000001020201000524007F
:100250001001052401010104240206052406000101
:100260000705820310004009040100020A00000093
:100270000705030240000007058402400000120148
:10028000000202000010C0167A04000101020301FE
:100290000001C11201803601813611241FBECFEF4B
:1002A000D0E2DEBFCDBF18E0A0E0B1E0EAEFF8E1B8
:1002B00000E00BBF02C007900D92A234B107D9F73E
:1002C00028E0A2E4B8E001C01D92AA3CB207E1F721
:1002D0009BD20C947B0C94CE8F708A3010F4805D8E
:1002E0000895895C0895E0910001F09101019189E0
:1002F000492F4695282F30E0F901481718F4B89691
:10030000E91BF109E75FFE4F808108951F93CF93AA
:10031000DF93CAE0D1E0199160E0812F54D560E00D
:10032000812FFDD581E0C233D807A9F7DF91CF91A6
:100330001F9108951F93CF93DF93182FE091000131
:10034000F09101018789CFDFD82FC0E0C11781F07C
:1003500061E08D2FE4D585E08A95F1F7000060E03B
:100360008D2FDDD585E08A95F1F70000CF5FEECFC8
:10037000DF91CF911F910895DF92EF92FF920F933B
:100380001F93CF93DF93182FC0910001D0910101EB
:100390008C89A9DFE82E8D89A6DF082F8CA5A3DF25
:1003A000D82ED8E0F12C612F661F6627661F8E2D90
:1003B000B6D584E0BFDF61E0802FB1D584E0BADF3D
:1003C0008D2D5CD62F2D30E0220F331FC1E081111F
:1003D00001C0C0E0C22BFC2E60E0802FA0D5110F21
:1003E000D15009F78C2FDF91CF911F910F91FF9082
:1003F000EF90DF900895CF92DF92EF92FF920F93EC
:100400001F93CF93DF93CDB7DEB72A970FB6F8943B
:10041000DEBF0FBECDBF00E010E0E0910001F09123
:100420000101E00FF11F84895EDFF82E882329F097
:1004300060E075D561E08F2DC6D40F5F1F4F083186
:10044000110559F700E010E0C0900001D0900101C3
:10045000F601E00FF11F84A546DFF82E882361F036
:10046000F601808980FF02C061E001C060E08F2D4D
:1004700056D560E08F2DA7D40F5F1F4F08311105AF
:1004800019F700E010E0E0910001F0910101E00FA8
:10049000F11FE45BFF4F808126DFF82E882329F0CF
:1004A00060E03DD561E08F2D8ED40F5F1F4F083087
:1004B000110549F700E010E0E0910001F091010121
:1004C000E00FF11FEC5BFF4F80810DDFF82E8823DA
:1004D00029F061E024D561E08F2D75D40F5F1F4FA7
:1004E0000830110549F7FFEF24E38CE0F15020407C
:1004F0008040E1F700C0000000910001109101016F
:10050000F801838981115EC08589EDDEE82EF8014E
:100510008689E9DEF82EF80184A5E5DED82E60E0B4
:100520008E2DFDD461E08F2DFAD484E003DF60E0EE
:100530008F2DF5D48FEFFEDEFFEF29EF80E0F15035
:1005400020408040E1F700C0000061E08D2DE7D43D
:100550008CEA12DFE82E83E50FDFF82E82E10CDF54
:10056000182F84E309DF082F60E08D2DD8D41335D0
:1005700049F18E2D82958F70AFDE89838E2DACDE92
:100580008A838F2D82958F70A7DE8B838F2DA4DEBB
:100590008C83812F82958F709FDE8D83812F9CDECF
:1005A0008E83802F82958F7097DE8F83802F94DECD
:1005B00088878DE089878AE08A876AE070E0CE01CB
:1005C000019680D62A960FB6F894DEBF0FBECDBF37
:1005D000DF91CF911F910F91FF90EF90DF90CF901F
:1005E0000895CF93DF93D0E0C0E0E0910001F09157
:1005F00001018389D81758F4ED0FF11D84A573DE2E
:100600003DD5811180E8C695C82BDF5FEECF8C2FDA
:10061000DF91CF910895CF92DF92EF92FF920F93E7
:100620001F93CF93DF93CDB7DEB7A0970FB6F894A3
:10063000DEBF0FBECDBF7C016B01452B41F08AE2CE
:1006400089838A838B8380E28C8314E001C010E06D
:1006500080E1E816F1048CF001E0010FC70124E00D
:10066000959587952A95E1F737DEE1E0F0E0EC0F0C
:10067000FD1FE10FF11D8083102FC70160E170E0C5
:100680000E944B0C29DEE1E0F0E0EC0FFD1FE10FD2
:10069000F11D808381E0810FE1E0F0E0EC0FFD1FB0
:1006A000E80FF11D80E2808382E0810FA1E0B0E0DD
:1006B000AC0FBD1FA80FB11D80E1F60101900D9296
:1006C0008A95E1F782E1810FE1E0F0E0EC0FFD1F98
:1006D000E80FF11D8DE0808383E1810FE1E0F0E020
:1006E000EC0FFD1FE80FF11D8AE080831C5E612F77
:1006F00070E0CE010196E6D5A0960FB6F894DEBF65
:100700000FBECDBFDF91CF911F910F91FF90EF9062
:10071000DF90CF900895CF92DF92EF92FF921F93D8
:10072000CF93DF936B017C01E0910001F091010117
:10073000838981111DC0DD2DDF70CC2D9CE0F694E6
:10074000E794D794C7949A95D1F7C0FC02C080E291
:1007500001C088E211DE8D2F0FDE8C2F0DDE80E0D0
:10076000DF91CF911F91FF90EF90DF90CF9004CE5B
:10077000C089C270E45BFF4F8081B5DD182FCC23A8
:1007800011F061E0CCD3D0E0E0910001F0910101E3
:100790008289D81768F4ED0FF11D8489A4DD6C2DD2
:1007A0006170BDD3F694E794D794C794DF5FECCF24
:1007B000CC2319F060E0812FB2D38FEF000000004E
:1007C000000000008150D1F70CDFC82FD8E009DF0E
:1007D0008C1719F0D150C82FD1F78C2FDF91CF9102
:1007E0001F91FF90EF90DF90CF900895CF93DF930C
:1007F000FC018491EF012196882319F024D5FE0194
:10080000F8CFDF91CF910895CF93DF93CDB7DEB7C7
:10081000CB59D1090FB6F894DEBF0FBECDBF80E82B
:10082000809361001092610010927C00A0D4B8D433
:100830008823E9F32FEF33ED40E32150304040406F
:10084000E1F700C000009FD680FFFDCFE9D4809182
:10085000320190913301C656DF4F99838883CA597C
:10086000D040DE015196CF56DF4FB983A883C159DE
:10087000D0404CDD88EC91E0B9DF62961FAE629704
:1008800010E0B4D48823E9F38ED47C018F3FBFEF0E
:100890009B07B9F3082FD7D4053129F46296EFAE40
:1008A000629711E016C00A3019F486EC91E004C09A
:1008B0000D3021F484EC91E099DF0BC01F3308F771
:1008C000E1E5F0E0EC0FFD1FE10FF11DE0821F5F9D
:1008D000D8CFE1E5F0E0EC0FFD1FE10FF11D108234
:1008E00062968FAD6297893609F4A3C148F48D30C2
:1008F00009F4BFCF853191F18A3009F055C2B9CFE3
:100900008D3609F472C170F48C3609F04DC2E4E3FF
:10091000EE2EE1E0FE2E00E010E0C0903201D0901B
:1009200033015FC18237A9F0833709F03DC2EEDCA5
:1009300034E3A32E31E0B32E212C312CE09132018F
:10094000F0913301C856DF4FF983E883C859D0408E
:10095000D8C180E0C12CD12C760167C082E498E038
:10096000E0D397FD86CFE0910001F091010181E095
:1009700090E0A0E0B0E0028804C0880F991FAA1F91
:10098000BB1F0A94D2F79C01AD01215031094109E6
:100990005109CD56DF4F288339834A835B83C3597E
:1009A000D04029DD812C912C540105E418E075011B
:1009B0006401B8E0053C1B0781F0260137013FEFD9
:1009C000431A530A630A730AC701B601A4DED801A9
:1009D0008D938D0173016201ECCF82E498E073D3B3
:1009E00097FD47CFE0E88E0E911CA11CB11CCD569F
:1009F000DF4F288139814A815B81C359D040C216BB
:100A0000D306E406F50688F282E498E099D331CF64
:100A100090ED980F9A30A8F484E0CC0CDD1CEE1C0D
:100A2000FF1C8A95D1F7C92A822F21E0280FE2E521
:100A3000F0E0EC0FFD1FE80FF11D80818111E8CF80
:100A40000EC09FEB980F963010F499EC06C09FE90A
:100A5000980F963008F0ABC199EA980FDDCF8FE27E
:100A600091E0C4DEC8DC412C1E0131E3230E311CB1
:100A70008C2D8F7031DC8887D701C60144E0B69594
:100A8000A795979587954A95D1F78F7025DC8F8329
:100A90008D2D8F7021DC8E83D701C6015CE0B69569
:100AA000A795979587955A95D1F78F7015DC8D830B
:100AB0008E2D8F7011DC8C83D701C60164E1B69551
:100AC000A795979587956A95D1F78F7005DC8B83ED
:100AD0008F2D8F7001DC8A83D701C6017CE1B6952A
:100AE000A795979587957A95D1F7F6DB89838E013F
:100AF0000F5F1F4F3E014BE3640E711CC701B6012F
:100B0000CD56DF4F0883C359D040C956DF4F1883F5
:100B1000C759D0404B015C015FEF851A950AA50AC1
:100B2000B50AF9DD582EE0E2D8011896EC938295CB
:100B30008F70D2DBD80119968C93852DCDDBF8010F
:100B40008287852D8F7D81548A3148F080ED850D17
:100B50008A3028F0F0E25F1204C080E203C0852DE5
:100B600001C08EE2D3018D933D010D5F1F4FC50182
:100B7000B4012016310671F6B0E2B9AFBAAFEDE0BC
:100B80002C96EFAF2C97FAE02D96FFAF2D976CE4E3
:100B900070E0CD56DF4F8881C359D040C956DF4F32
:100BA0009881C759D0408ED320E1C20ED11CE11CE0
:100BB000F11C439434E043125BCF5BCE41E050E044
:100BC00080910001909101018E159F0511F040E088
:100BD00050E0B701C8011FDD0F5F1F4F46E5E40E6F
:100BE000F11C0C151D0550F344CE64E371E080E068
:100BF00090E0C656DF4FA881B981CA59D0408A1704
:100C00009B07A1F0E1E5F0E0EC0FFD1F3196DB0161
:100C10003D91332309F4CFC02191222309F4CBC0A5
:100C20003217B1F301966A5A7F4FE3CF8AE191E020
:100C3000C0C080E2A1DB80E09FDB80E09DDB80E044
:100C40009BDB17CEBFEF4B1A5B0A6B0A7B0ACF56B2
:100C5000DF4FE881F981C159D040E017F10709F071
:100C600040C0F0E1CF0ED11CE11CF11CC11421E009
:100C7000D206E104F10409F461C08E010F5F1F4F39
:100C8000480126013701C301B20145DDD4018D932E
:100C90004D01982F9095CD56DF4FB881C359D04064
:100CA000B92BCD56DF4FB883C359D040C956DF4F5B
:100CB000E881C759D040E82BC956DF4FE883C759B0
:100CC000D040FFEF4F1A5F0A6F0A7F0ACF56DF4FFF
:100CD00028813981C159D04028153905A1F626014E
:100CE0003701D8019D908D01C301B20114DD981622
:100CF00009F4A8CF0BDB5FEF251A350A86E5A80EAD
:100D0000B11CC856DF4FA881B981C859D0402A16F6
:100D10003B0608F0AECDB0920101A09200016BDB62
:100D2000CD56DF4F1882C359D040C956DF4F1882C5
:100D3000C759D040C12CD12C76019FCFC956DF4F67
:100D40003881C759D0403F3FA9F6CD56DF4F488183
:100D5000C359D0404F3F71F6E0910001F09101017D
:100D6000C12CD12C7601C394028804C0CC0CDD1CAC
:100D7000EE1CFF1C0A94D2F7F694E794D794C7941C
:100D8000C701B601C8DC10E0812E912CA12CB12C3A
:100D9000C501B401C0DCC701B601680D791D8A1D0B
:100DA0009B1DB9DC1F5FF0CF82E391E002C08BE2B4
:100DB00091E01CDD5ECD709301016093000141E084
:100DC00050E029DC56CD982F9F7082958F708C3023
:100DD00009F441C028F48A3061F08B3019F108958C
:100DE0008E3009F46AC008F44FC08F3009F47EC019
:100DF000089541B121E030E0662349F0B90102C015
:100E0000660F771F9A95E2F7CB01842B09C0B901D1
:100E100002C0660F771F9A95E2F7CB018095842375
:100E200081B9089544B121E030E0662349F0B90169
:100E300002C0660F771F9A95E2F7CB01842B09C099
:100E4000B90102C0660F771F9A95E2F7CB01809532
:100E5000842384B9089547B121E030E0662349F046
:100E6000B90102C0660F771F9A95E2F7CB01842B78
:100E700009C0B90102C0660F771F9A95E2F7CB014E
:100E80008095842387B908954AB121E030E0662334
:100E900049F0B90102C0660F771F9A95E2F7CB01BE
:100EA000842B09C0B90102C0660F771F9A95E2F73B
:100EB000CB01809584238AB908954DB121E030E0BB
:100EC000662349F0B90102C0660F771F9A95E2F7D1
:100ED000CB01842B09C0B90102C0660F771F9A9518
:100EE000E2F7CB01809584238DB9089540B321E0CA
:100EF00030E0662349F0B90102C0660F771F9A956A
:100F0000E2F7CB01842B09C0B90102C0660F771F3D
:100F10009A95E2F7CB018095842380BB0895982FA2
:100F20009F7082958F708C3009F441C028F48A300C
:100F300061F08B3019F19FC08E3009F46AC008F45B
:100F40004FC08F3009F47EC096C042B121E030E03E
:100F5000662349F0B90102C0660F771F9A95E2F740
:100F6000CB01842B09C0B90102C0660F771F9A9587
:100F7000E2F7CB018095842382B9089545B121E041
:100F800030E0662349F0B90102C0660F771F9A95D9
:100F9000E2F7CB01842B09C0B90102C0660F771FAD
:100FA0009A95E2F7CB018095842385B9089548B1DD
:100FB00021E030E0662349F0B90102C0660F771FD7
:100FC0009A95E2F7CB01842B09C0B90102C0660FE4
:100FD000771F9A95E2F7CB018095842388B908950D
:100FE0004BB121E030E0662349F0B90102C0660F41
:100FF000771F9A95E2F7CB01842B09C0B90102C093
:10100000660F771F9A95E2F7CB01809584238BB901
:1010100008954EB121E030E0662349F0B90102C0E5
:10102000660F771F9A95E2F7CB01842B09C0B901AF
:1010300002C0660F771F9A95E2F7CB018095842353
:101040008EB9089541B321E030E0662349F0B9013B
:1010500002C0660F771F9A95E2F7CB01842B09C077
:10106000B90102C0660F771F9A95E2F7CB01809510
:10107000842381BB08958BEC91E0B8CB282F2F708F
:1010800082958F708C3081F030F48A3059F08B303B
:10109000C1F433B10EC08E3059F040F08F3089F476
:1010A0003FB107C030B105C036B103C039B101C08E
:1010B0003CB181E090E001C0880F2A95EAF78323D4
:1010C000089580E008951F93CF93DF93EC01FC0116
:1010D00033969C012D573F4F80E0E217F30719F03C
:1010E0009191890FFACF808389818F5F8983809561
:1010F0008A831BE0115049F064E870E0CE01E2D031
:1011000052D0863041F0883119F48FEF9FEF05C03F
:101110008531B1F7EFCF80E090E0DF91CF911F9163
:10112000089521E0FC01208311823DD0853129F012
:101130008831D9F78FEF9FEF089580E090E0089510
:1011400084E081D030D08F3F2FEF9207D9F38630E3
:10115000910529F04897B1F78FEF9FEF089580E050
:1011600090E008958091E80080FFFCCF089581E829
:101170008093D70080EA8093D80086E189BD09B4C6
:1011800000FEFDCF80E98093D8001092E00010921D
:10119000C9081092C6088CE08093E2007894089504
:1011A0008091C90808959FB7F8948091C908882351
:1011B00069F083E08093E9002BE68091E80085FDEB
:1011C00009C082FF03C02093E800F7CF9FBF8FEFD5
:1011D0009FEF08958091F1002091E80025FD03C064
:1011E0002BE62093E8009FBF90E008952FB7F89476
:1011F0008091C908811102C080E010C083E0809313
:10120000E9008091F200811109C09091E80092FFFD
:10121000F3CF95FDF1CF9BE69093E8002FBF0895A3
:101220008091C908882371F08FB7F89493E0909368
:10123000E9002BE69091E80095FF03C02093E800B9
:10124000F9CF8FBF08959091C908992371F09FB786
:10125000F89424E02093E9002091C708222349F064
:101260002091E80025FD03C09FBF8FEF08951092E5
:10127000C7082091E400275E34E04091E80045FD76
:1012800012C09FBF9091E400291304C081E08093B5
:10129000C708EBCF9091C908992339F39FB7F89409
:1012A0003093E900EACF8093F1008091E80085FD5A
:1012B00003C08AE38093E80085E08093C8089FBF5D
:1012C00080E008950F931F93CF93DF93DC01CB0150
:1012D0002091C908222371F02FB7F89434E030939D
:1012E000E9003091C708332349F03091E80035FD1B
:1012F00003C02FBF8FEF42C11092C708C4E0D0E4F3
:101300001AE305E0009709F438C13091E400375E34
:101310004091E80045FD12C02FBF2091E400321338
:1013200004C081E08093C708E5CF2091C90822233B
:1013300009F32FB7F894C093E900EACF3091F20097
:10134000ED2FE31B4E2F50E08417950708F4E82F8C
:101350008E1B91094E2F50E04134510508F000C119
:10136000FA01E45BFF4FAAC23C913093F100119661
:101370003C913093F10011963C913093F10011961D
:101380003C913093F10011963C913093F10011960D
:101390003C913093F10011963C913093F1001196FD
:1013A0003C913093F10011963C913093F1001196ED
:1013B0003C913093F10011963C913093F1001196DD
:1013C0003C913093F10011963C913093F1001196CD
:1013D0003C913093F10011963C913093F1001196BD
:1013E0003C913093F10011963C913093F1001196AD
:1013F0003C913093F10011963C913093F10011969D
:101400003C913093F10011963C913093F10011968C
:101410003C913093F10011963C913093F10011967C
:101420003C913093F10011963C913093F10011966C
:101430003C913093F10011963C913093F10011965C
:101440003C913093F10011963C913093F10011964C
:101450003C913093F10011963C913093F10011963C
:101460003C913093F10011963C913093F10011962C
:101470003C913093F10011963C913093F10011961C
:101480003C913093F10011963C913093F10011960C
:101490003C913093F10011963C913093F1001196FC
:1014A0003C913093F10011963C913093F1001196EC
:1014B0003C913093F10011963C913093F1001196DC
:1014C0003C913093F10011963C913093F1001196CC
:1014D0003C913093F10011963C913093F1001196BC
:1014E0003C913093F10011963C913093F1001196AC
:1014F0003C913093F10011963C913093F10011969C
:101500003C913093F10011963C913093F10011968B
:101510003C913093F10011963C913093F10011967B
:101520003C913093F10011963C913093F10011966B
:101530003C913093F10011963C913093F10011965B
:101540003C913093F10011963C913093F10011964B
:101550003C913093F10011963C913093F10011963B
:101560003C913093F10011963091E80035FF1093D3
:10157000E8000093C8082FBFC5CE80E0DF91CF916F
:101580001F910F9108958091C60808951F920F92A0
:101590000FB60F9211248F939F938091E1001092C8
:1015A000E10083FF11C01092E90091E09093EB00FD
:1015B0001092EC0092E19093ED0098E09093F0008F
:1015C0001092C9081092C60882FF13C08091C90802
:1015D000882379F08091C808882359F0815080933E
:1015E000C808811106C084E08093E9008AE38093F3
:1015F000E8009F918F910F900FBE0F901F9018954C
:101600001F920F920FB60F9211240BB60F92FF92FA
:101610000F931F932F933F934F935F936F937F93FA
:101620008F939F93AF93BF93CF93DF93EF93FF93EA
:101630001092E9008091E80083FF12C1F090F10060
:101640008091F1000091F1009091F10010E0192BD0
:10165000C091F1009091F100D0E0D92B2091F100E0
:101660006091F10092EF9093E800863009F049C054
:1016700081ED91E04BEF51E0FC01A591B4910A1787
:101680001B07D9F4FC013296A591B491CA17DB0768
:10169000A1F4FC01349645915491FC013696849155
:1016A00030E0362B2F3F310519F010F02FEF30E0EE
:1016B000281708F4822F3EEF0CC0079648175907E9
:1016C000D9F6CEC0490F511D891B3093E8008823FD
:1016D000A9F09091E800292F2570D9F392FDC3C09D
:1016E000982F813108F090E1FA01292F222351F33C
:1016F00064916093F10021503196F8CF903149F315
:10170000B2C0853041F48EEF8093E8002BDD006895
:101710000093E300A8C0893059F5F110A1C00093EF
:10172000C9081092C6081092C8088EEF8093E8008E
:1017300041E080E992E04093E9009C012F5F3F4F38
:10174000FC0154915093EB00552359F0F901249179
:101750002093EC009C012D5F3F4F3196E491E09384
:10176000ED004F5F453011F0C901E5CF8EE173C048
:10177000883049F4F0E8FF1273C0F4DC8091C908A6
:101780008093F10046C0813279F481EAF81268C092
:10179000E9DCE2E0F1E089E091E021912093F100C1
:1017A0008E179F07D1F735C08032A9F491E2F91264
:1017B00057C08091E80082FFFCCFE2E0F1E089E0D1
:1017C00091E02091F10021938E179F07D1F78BEFC5
:1017D0008093E8001EC0823239F4E1E2FE1240C07C
:1017E0000093C608BFDC15C0811117C0BBDCF2E84E
:1017F000FF120AC0C093E9008091EB0085FB8827A7
:1018000080F91092E90001C080E08093F10010920D
:10181000F1008EEF8093E80026C0982F9D7F9130D5
:10182000F9F492E0F9121CC0012BD1F4CF779FEFAD
:101830009C0F9430A8F49EEF9093E800C093E900C9
:10184000833071F089E18093EB0081E090E001C08A
:10185000880FCA95EAF78093EA001092EA0003C065
:1018600081E28093EB00FF91EF91DF91CF91BF91E7
:10187000AF919F918F917F916F915F914F913F9128
:101880002F911F910F91FF900F900BBE0F900FBEE5
:101890000F901F90189597FB072E16F4009406D012
:1018A00077FD08D014D007FC05D03EF490958195C3
:1018B0009F4F0895709561957F4F0895EE0FFF1F1C
:1018C0000024001C0BBE0790F691E02D0994AA1B82
:1018D000BB1B51E107C0AA1FBB1FA617B70710F01B
:1018E000A61BB70B881F991F5A95A9F7809590954D
:0A18F000BC01CD010895F894FFCF6C
:1018FA00340100E1000000000800B6B5B4B3B2B18B
:10190A00B0E7E6A2A1F0F1F2F3F4F5F6F7A3A7C760
:10191A00C6C5C4C3C2C1C0E1E0D7D6D5D4D3D2D1DB
:10192A00D0B715004E4F4E450000000000000000E1
:10193A0000000000001C0000000000000000000081
:10194A00000000000000000000000000000000008D
:10195A00000000000000000000000000000000007D
:10196A00000000000000000000000000000000006D
:10197A00000000000000000000004D3237433531FE
:10198A0032000000000000000000001C10080A09D4
:10199A0008070605040319181517021A1B01000087
:1019AA000000000000000B0C0D0F101112130000B4
:1019BA0000000000000000000000000000001C0001
:1019CA0000000000000016140E00000000001C0EAB
:1019DA004D32374332353600000000000000000067
:1019EA00001C0F080A090807060504031918151729
:1019FA00021A1B0000000000000000000B0C0D0F73
:101A0A001011121300000000000000000000000086
:101A1A00000000001C0100000000000016140E0067
:101A2A00000000001C0E4D323743313238000000EE
:101A3A00000000000000001C0E080A09080706053D
:101A4A00040319181517021A00000000000000000C
:101A5A0000000B0C0D0F1011121300000000000003
:101A6A00000000000000000000001C011B00000034
:101A7A00000016140E00000000001C0E414D323703
:101A8A00433034300000000000000000002013083A
:101A9A000C0B0A09080706051B1A1719041C1D0353
:101AAA00021E1F00000000000D0E0F111213141564
:101ABA00000000000000000000000000000000001C
:101ACA0000000000000000000116180000000000DD
:101ADA0020104C482D3533353631380000000000CF
:101AEA000000031C0F080A090807060504031A194F
:101AFA00021418161C0000000000000000000B0C65
:101B0A000D0F101112130000000000000000000069
:101B1A00000000000000010000000000000017158E
:101B2A001B0E00000000010E4D3237433634000010
:101B3A000000000000000000001C0D080A09080748
:101B4A00060504031918151702000000000000001A
:101B5A00000000000B0C0D0F101112130000000002
:101B6A000000000000000000000000001C011B0033
:101B7A000000000016140E00000000001C0E38378A
:101B8A004336340000000000000000000000031C7F
:101B9A000D080A0908070605040319181517020093
:101BAA00000000000000000000000B0C0D0F1011D7
:101BBA0012130000000000000000000000000000F6
:101BCA0000001C011B000000000014160E0000009B
:101BDA0000001C0E4336342D323733320000000029
:101BEA000000000000180C0808070605040302019B
:101BFA001716131200000000000000000000000089
:101C0A00090A0B0D0E0F1011000000000000000061
:101C1A00000000000000000018150000000000008D
:101C2A000C14000000000000180C44323733324113
:101C3A000000000000000000000000180C0808075F
:101C4A000605040302011716131500000000000020
:101C5A00000000000000090A0B0D0E0F1011000011
:101C6A000000000000000000000000000000180052
:101C7A000000000000000C12140000000000180C04
:101C8A005442503238533432000000000000000041
:101C9A0000140908010203040510111213000000C0
:101CAA00000000000000000000000000060708090C
:101CBA000B0C0D0E000000000000000000000000E8
:101CCA000000000014000000000000000A0F0000DD
:101CDA000000000000004D424D323736342D3330BB
:101CEA00000000000000001C0D080A09080706058C
:101CFA000403191815170200000000000000000074
:101D0A0000000B0C0D0F1011121300000000000050
:101D1A00000000000000000000001B01000000009D
:101D2A00000016140E000000000000003237433293
:101D3A0031300000000000000000000000281010F0
:101D4A0015161718191A1B1C1D1F202122232425BA
:101D5A000000000000000000131211100F0E0D0CFD
:101D6A000A09080706050403000000000000000035
:101D7A002801270000000000020B1E1400000000CA
:101D8A00280B4150504C452050524F4D0000000046
:101D9A000000001C11080A0908070605040319189F
:101DAA001517021A1B0116000000000000000B0C98
:101DBA000D0F1011121300000000000000000000B7
:101DCA000000000000001C00000000000000140ECB
:101DDA000000000000000000323846353132202869
:101DEA00756E747374642900002010080C0B0A09BC
:101DFA00080706051B1A1719041C1D0F000000000E
:101E0A00000000000D0E0F1112131415000000003F
:101E1A00000000000000000000000000201F010078
:101E2A0000000000101816000000000020103233D5
:101E3A0036344100000000000000000000000018D5
:101E4A000D080807060504030201171613121500E8
:101E5A0000000000000000000000090A0B0D0E0F30
:101E6A001011000000000000000000000000000047
:101E7A00000018000000000000000C140000000020
:101E8A000000180C323731362028756E7465737469
:101E9A006564290000180B080807060504030201F7
:101EAA0017161300000000000000000000000000E8
:101EBA00090A0B0D0E0F10110000000000000000AF
:101ECA0000000000000000001815000000000000DB
:101EDA000C14120000000000180C39333136202887
:101EEA00756E746573746564290000180B08080719
:101EFA000605040302011716130000000000000083
:101F0A00000000000000090A0B0D0E0F101100005E
:101F1A00000000000000000000000000000018128D
:101F2A000000000000000C15140000000000180C4E
:101F3A00484E3436323733320000000000000000C9
:101F4A0000180C08080706050403020117161315E2
:101F5A00000000000000000000000000090A0B0D4C
:101F6A000E0F101100000000000000000000000029
:101F7A000000000018000000000000000C1412000D
:101F8A0000000000180C41544D65676138000000DC
:101F9A00000000000000001C0D00111301090000E0
:101FAA000000000000000000000000000000000027
:101FBA000000120000000000000000000000000005
:101FCA0000000000000000000000071400000000EC
:101FDA0000000816000000000000070841544D6583
:101FEA00676133323850000000000000001C0F0007
:101FFA0011130109000000000000000000000000A9
:10200A0000000000000000001200000000000000B4
:10201A0000000000000000000000000000000000B6
:10202A00071400000000000008160000000000006D
:02203A000000A4
:00000001FF
